:100000000110030000000000201B0000CD6800006C
:10001000020FB801020408102040800214CA7E03B7
:100020009000EEE06F6005EFF0E4A3F09000EEE0EA
:10003000B4FF02E4FE9000EFE004F0C39E50037FA3
:1000400000229000EF7403F07F0122021600E4F515
:10005000E3439F08439F02FF0FBF0FFC539FF775B9
:10006000BE0EE4F5BFF5B9759276220213397520FC
:10007000FF7521FF1213DEE49000FFF0A3F07F0173
:10008000EF25E02450F8E2FC08E2FD9000FFE025B7
:10009000E02451F9C3E39D19E39C5002EFF0EF25F2
:1000A000E02450F8E2FC08E2FD900100E025E024A5
:1000B00051F9D3E39D19E39C4002EFF00FBF04C058
:1000C0009000FCE0F925E02400F8E2FE08E2FF7869
:1000D00080EEF2FE08EFF2C39405EE9400500BE4BC
:1000E0007884F208F27882F208F29000F0E0FFC320
:1000F0009404400302029E7890E630E03E7894E655
:1001000024FBFD18E634FFFCEF25E02400F8E2FEB6
:1001100008E2C39DEE9C4005E0F521F520E925E0CD
:100120002400F8E2FE08E2C39DEE9C500302022D7B
:1001300089219000F0E0F52002022D7894E624FB5E
:10014000FF18E634FFFE9000F0E0FD25E02400F803
:10015000E2FA08E2C39FEA9E405AED94025007E09B
:10016000F521F520804E9000F0E024FEFF69600A42
:100170009000FCE0F521F52080089000F0E0F521EA
:10018000F5207894E624FBFD18E634FFFC9000FE91
:10019000E0FE25E02400F8E2FA08E2C39DEA9C4074
:1001A00013EF6E6007E0F521F52080089000F0E085
:1001B000F521F5207894E624FBFF18E634FFFE9045
:1001C00000FCE0FD25E02400F8E2FA08E2C39FEA23
:1001D0009E406A9000F0E0FF94025010EDC394023C
:1001E000505B9000FCE0F5218F2080519000F0E002
:1001F000FF24FEFE9000FCE0FD6E6007E0F521F5B7
:100200002080048D218F207894E624FBFD18E634AD
:10021000FFFC9000FEE0FF25E02400F8E2FA08E28F
:10022000C39DEA9C4017EE6F6007E0F521F5208042
:100230000C9000FEE0F5219000F0E0F520E520F4C0
:10024000700302037FE52125E02400F8E2FE08E2C6
:10025000FF7884E2FC08E2FDC3EF9DEE9C5003753D
:1002600020FF7882E2FC08E2FDD3EF9DEE9C401275
:10027000E52125E02400F8E2FF08E27882CFF208C9
:10028000EFF27882E2FE08E2FFC3943CEE94005065
:1002900008E408F208F202037FEF7802CEC313CE1F
:1002A00013D8F9FF7884EEF208EFF202037F900092
:1002B000FCE0FF25E02400F8E2FC08E2C378949615
:1002C000EC1896500302037F8F20E52025E02400E0
:1002D000F8E2FE08E2FF7884E2FC08E2FDC3EF9D4D
:1002E000EE9C50037FFF229000FFE0FD6520705BD5
:1002F000A3E025E02450F8E2FE08E2FFED25E0242B
:1003000050F8E2FC08E2FD1219FF8E228F239001C3
:1003100000E025E02430F8E2FE08E2FF9000FFE074
:1003200025E02430F8E2FC08E2FD1219FFAD07AC2D
:1003300006900101E075F002A42523FFE52235F0C7
:10034000FEC3ED9FEC9E50477FFF22E52025E02471
:1003500030F8E2FC08E2FD9000FFE025E02450F8D0
:10036000E2FE08E2D39DEE9C40037FFF2290010154
:10037000E075F002A4FFE52025E02451F8E22FFF0C
:1003800018E235F0FEC3ED9FEC9E50037FFF22AFD5
:100390002022BB010689828A83E0225002E722BB29
:1003A000FE02E32289828A83E49322EF8DF0A4A8DF
:1003B000F0CF8CF0A428CE8DF0A42EFE22BC000B32
:1003C000BE0029EF8DF084FFADF022E4CCF875F08B
:1003D00008EF2FFFEE33FEEC33FCEE9DEC9840056A
:1003E000FCEE9DFE0FD5F0E9E4CEFD22EDF8F5F030
:1003F000EE8420D21CFEADF075F008EF2FFFED3338
:10040000FD4007985006D5F0F222C398FD0FD5F0B5
:10041000EA22E88FF0A4CC8BF0A42CFCE98EF0A4A7
:100420002CFC8AF0EDA42CFCEA8EF0A4CDA8F08B75
:10043000F0A42DCC3825F0FDE98FF0A42CCD35F0BB
:10044000FCEB8EF0A4FEA9F0EB8FF0A4CFC5F02E4C
:10045000CD39FEE43CFCEAA42DCE35F0FDE43CFCB5
:100460002275F008758200EF2FFFEE33FECD33CDFD
:10047000CC33CCC58233C5829BED9AEC99E582984A
:10048000400CF582EE9BFEED9AFDEC99FC0FD5F049
:10049000D6E4CEFBE4CDFAE4CCF9A88222B800C1C0
:1004A000B90059BA002DEC8BF084CFCECDFCE5F02D
:1004B000CBF97818EF2FFFEE33FEED33FDEC33FC74
:1004C000EB33FB10D703994004EB99FB0FD8E5E41D
:1004D000F9FA227818EF2FFFEE33FEED33FDEC33FF
:1004E000FCC933C910D7059BE99A4007EC9BFCE98E
:1004F0009AF90FD8E0E4C9FAE4CCFB2275F010EFCA
:100500002FFFEE33FEED33FDCC33CCC833C810D70C
:10051000079BEC9AE899400AED9BFDEC9AFCE89960
:10052000F80FD5F0DAE4CDFBE4CCFAE4C8F922EB1D
:100530009FF5F0EA9E42F0E99D42F0E89C45F022EA
:10054000E8600FECC313FCED13FDEE13FEEF13FF99
:10055000D8F122E8600FEFC333FFEE33FEED33FD39
:10056000EC33FCD8F122E6FC08E6FD08E6FE08E6DE
:10057000FF22E6FB08E6F908E6FA08E6CBF822ECEB
:10058000F608EDF608EEF608EFF622ECF208EDF2CA
:1005900008EEF208EFF222D083D082E493F60874DA
:1005A0000193F608740293F608740393F6740473C7
:1005B000D083D082E493F208740193F2087402931A
:1005C000F208740393F27404738A838982E473E4F7
:1005D000F519F518E51825E025E02486F81205A0A0
:1005E000000000000518E518B404E91217D7E4F577
:1005F00018E51825E025E02486F8C000E2FC08E2B2
:10060000FD08E2FE08E2FFE51825E025E02451F8A8
:10061000120562EF2BFFEE3AFEED39FDEC38FCD00F
:100620000012057B0518E518B404C60519E519C3C1
:10063000940540B7E4F518AF19E4FCFDFEC004A929
:1006400005AA06AB07E51825E025E02486F8E2FCBC
:1006500008E2FD08E2FE08E2FFD00012048D8F1DC3
:100660008E1C8D1B8C1AAB1DAA1CA91BA81AC000BE
:10067000E51825E02471F8E6FE08E6FFE4FCFDD06D
:10068000001204028F1D8E1C8D1B8C1A7807120518
:10069000308F1D8E1C8D1B8C1AE47FB87E0BFDFCE9
:1006A000AB1DAA1CA91BA81AD312051F4030E51DBB
:1006B0002448FFE51C34F4FEE51B34FFFDE51A3445
:1006C000FFFCE51825E025E02431F812056FE51858
:1006D00025E02430F8740BF20874B8F2801EE51897
:1006E00025E025E02431F812058700000000E51818
:1006F00025E02430F8E51CF208E51DF2E51825E0B8
:100700002430F8E2FE08E2FFE51825E02450F8EE78
:10071000F208EFF2E51825E02430F8E2FE08E2FFE7
:10072000E4FCFDE51825E025E02460F812057BE5F2
:100730001825E025E02460F8C000E2FC08E2FD088E
:10074000E2FE08E2FF7807120543D00012057BE5C0
:100750001825E02430F8E2FE08E2FFE51825E02441
:1007600040F8EEF208EFF2E51825E02410F8E4F284
:1007700008F2E51825E025E02486F81205A000001F
:100780000000E51825E024B6F8E4F208F20518E5C3
:100790001864046003020627228E1A8F1BE4F51DDD
:1007A000F51EF51FF51C9000F0E0C394FF40089083
:1007B00000EFE06403601EE51C25E024B6F8E4F2D7
:1007C00008F2E51C25E025E02486F81205A00000CB
:1007D00000000208ABE51C25E024C6F582E43400E5
:1007E000F583E0F51DA3E0F51EE51C25E024B7F92F
:1007F000E3700219E3701AE51C25E02430F8E2FEEC
:1008000008E2FFE51C25E024A6F8EEF208EFF280EE
:1008100062E51C25E024A6F8E2FE08E2FFE51C25BF
:10082000E02430F8E2FC08E2FD1219FFAC06AD0747
:10083000E51DC313FEE51E13FFD3ED9FEC9E403371
:10084000E51C25E02430F8E2FE08E2FFE51C25E087
:1008500024A6F8EEF208EFF2E51C25E024B6F8E451
:10086000F208F2E51C25E025E02486F81205A00038
:10087000000000E51C25E02430F8E2FE08E2FFE578
:100880001C25E025E02486F8C000E2FB08E2F90818
:10089000E2FA08E2CBF8E4FCFDEB2FFFEA3EFEEDC6
:1008A00039FDEC38FCD00012057BE51C25E024B6B0
:1008B000F808E22401F218E23400F2051CE51CC33A
:1008C00094045003020796E4F51CE51C25E024B7C8
:1008D000F9C3E3951B19E3951A4002051F051CE5B2
:1008E0001CB404E6E51F64047063F51CE51C25E0F8
:1008F00024B6F8E2FE08E2FF4E604BE4FCFDC004C3
:10090000A905AA06AB07E51C25E025E02486F8E248
:10091000FC08E2FD08E2FE08E2FFD00012048DE5CB
:100920001C25E02440F8EEF208EFF2E51C25E02457
:10093000B6F8E4F208F2E51C25E025E02486F8127A
:1009400005A000000000051CE51CB4049F228F1ABE
:10095000E4F51BE51B25E025E02431F8120556E4FB
:10096000FBFAF9F8C312051F7003020ADFE51A70DB
:100970003CE51B25E025E02431F8C000120556C0F7
:1009800006C007E51B25E02440F8E2FE08E2FFFB75
:10099000AA06E4F9F8D007D006EF2BFFEE3AFEE9FD
:1009A0003DFDE83CFCD00012056F020A56E51AB482
:1009B000013BE51B25E025E02431F8C00012055677
:1009C000C006C007E51B25E02450F8E2FE08E2FF60
:1009D000FBAA06E4F9F8D007D006EF2BFFEE3AFEAB
:1009E000E93DFDE83CFCD00012056F8079E51AB4C2
:1009F000023BE51B25E025E02431F8C00012055636
:100A0000C006C007E51B25E02430F8E2FE08E2FF3F
:100A1000FBAA06E4F9F8D007D006EF2BFFEE3AFE6A
:100A2000E93DFDE83CFCD00012056F8039E51B254F
:100A3000E025E02431F8C000120556C006C007E5E5
:100A40001B25E02440F8E2FE08E2FFFBAA06E4F9D9
:100A5000F8D007D006EF2BFFEE3AFEE93DFDE83C6B
:100A6000FCD00012056FE51B25E025E02431F8C01D
:100A700000120556C3EF94B8FFEE940BFEED940000
:100A8000FDEC9400FCD00012056FE51B25E024402E
:100A9000F8740BF20874B8F2E51B25E02430F87402
:100AA0000BF20874B8F2E51B25E02450F8740BF241
:100AB0000874B8F2E51B25E025E02460F81205A0D3
:100AC00000000BB8E51B25E025E02460F8C000E23B
:100AD000FC08E2FD08E2FE08E2FF7807120543D0B9
:100AE0000012057BE51B25E02410F8E4F208F2056E
:100AF0001BE51B640460030209432285BA1E53BA36
:100B00000F43BA10E4F518E51825E025E02451F864
:100B1000120587000000000518E518B404E97518EF
:100B20000A75ABFF121917E4F519E51925E025E060
:100B30002451F8C000120556C004C005C006C00705
:100B400074C52519F8E675F003A42419F582E43478
:100B50001AF583E493FB740193FA740293F9120576
:100B6000B9A804A905AA06AB07D007D006D005D0BE
:100B700004EF2BFFEE3AFEED39FDEC38FCD000120D
:100B8000056F0519E519C39404409FE4F5AB1219EC
:100B900017E4F519E51925E025E02451F8C0001205
:100BA0000556C004C005C006C00774C52519F8E67F
:100BB00075F003A42419F582E4341AF583E493FB59
:100BC000740193FA740293F91205B9A804A905AA4D
:100BD00006AB07D007D006D005D004C3EF9BFFEECD
:100BE0009AFEED99FDEC98FCD00012056F0519E511
:100BF00019C39404409E1518E5186003020B11E414
:100C0000F519E4751D98751C3AF51BF51AAF1DAE64
:100C10001CAD1BAC1A78071205438F1D8E1C8D1B53
:100C20008C1AE51925E025E02451F812056212041A
:100C30008D8F1D8E1C8D1B8C1AE51925E02471F8F3
:100C4000A60608A6070519E519B404B6851EBA223A
:100C50007518FF7519081210BC121286EF64017026
:100C6000767F0112187EAD07AC067880E2FA08E2C2
:100C7000FB4A700FED7802CEC313CE13D8F9FDAC4A
:100C8000068036C3EB9405EA94005009ECC313FCCC
:100C9000ED13FD8024C37881E2941418E29400508F
:100CA00009ECC313FCED13FD800FEDAE047802CE0A
:100CB000C313CE13D8F9FDAC06D39000F7E094002F
:100CC0009000F6E094004006EC13FCED13FDAF0538
:100CD000AE041207898003AF19229000EEE0F518E8
:100CE000E51804706F9000FFE025E02450F8E2FE64
:100CF00008E2FFA3E025E02450F8E2FC08E2FD1240
:100D000019FFAC06AD07900101E075F002A4FFD316
:100D1000ED9FEC95F040109000FBE004F070069021
:100D200000FAE004F08007E49000FAF0A3F07F07F7
:100D300012187ED39000FBE09F9000FAE09E4008DE
:100D4000E4F0A3F0FF12093E121747E49000F8F018
:100D5000A3F0802BAF181214579000F9E004F07044
:100D6000069000F8E004F07F0512187ED39000F999
:100D7000E09F9000F8E09E40061217477F0322AFE5
:100D80001922E4F518E51825E025E02451F8C00003
:100D9000120556C006C007E51825E02471F8E6FEE6
:100DA00008E6FFFBAA06E4F9F8D007D00612040211
:100DB000D00012056FE51825E025E02451F8C000A9
:100DC0001205567807120530D00012056FE5182578
:100DD000E025E02451F8120556EC4D4E4F70030209
:100DE0000E84E51825E025E02431F8120556E518B3
:100DF00025E025E02451F8120562C312051F5003B7
:100E00007F0322E51825E025E02431F8120562C0B1
:100E100000E51825E025E02451F8120556D000C35E
:100E2000EF9BF51CEE9AF51BED99F51AEC98F51968
:100E3000E47FFF7EFFFDFCAB1CAA1BA91AA819C307
:100E400012051F40037F0322E51825E02430F8E552
:100E50001BF208E51CF2E51825E02440F8E2FE0844
:100E6000E2FFE51825E02430F8E2FC08E2FDD39F1C
:100E7000EC9E4013ED9FFFEC9EF8E51825E0241052
:100E8000C8F208EFF2801BE51825E02410F8E4F220
:100E900008F2800EE51825E02410F8E4F208F27F4D
:100EA00003220518E51864046003020D757F07220C
:100EB0007518077D0774017E00A818088005C333E4
:100EC000CE33CED8F9FFACACECFBE4EF5B7003D5CE
:100ED00018E3ED601D74017E00A805088005C3338A
:100EE000CE33CED8F9FFACAEECFBE4EF5B70031D64
:100EF00080E0AF187401A807088002C333D8FCF55E
:100F0000AC7401A805088002C333D8FCFFF5AD8F8F
:100F1000AE53AACF85BA2153BA0F43BA10E4F51CD9
:100F2000F51BF51AF519121917E4F51874C52518EB
:100F3000F8E675F003A42419F582E4341AF583E485
:100F400093740193FA740293F91205B98F208E1FDE
:100F50008D1E8C1DAB1CAA1BA91AA819C312051F34
:100F6000500C85201C851F1B851E1A851D19051810
:100F7000E518C3940440B5AF1CAE1BAD1AAC19788C
:100F800003120530E51C2FF51CE51B3EF51BE51A89
:100F90003DF51AE5193CF519AF1CAE1BAD1AFC78EE
:100FA000101205308FB3AF1CAE1BAD1AAC19780808
:100FB0001205308FB2851CB143AA308521BA75ACB9
:100FC0000375ADC075AEC022E453C6DFE5C600B5FB
:100FD000C6F643C68075830075820775FD0DE4E58E
:100FE000FEF4FF75830075820675FD0DE4E5FEB520
:100FF0000704F59E8003759E007596047597047529
:10100000830075820375FD0DE4E5FEF4FF75830032
:1010100075820275FD0DE4E5FEB50704F5958003C4
:101020007595835392FE9001007F007E02E4F0A349
:10103000DFFCDEFA78007F00E4F208DFFC78FFE4F2
:10104000F6D8FD7581D00210770200000211B1E4DC
:1010500093A3F8E493A34003F68001F208DFF48041
:1010600029E493A3F85407240CC8C333C4540F4491
:1010700020C8834004F456800146F6DFE4800B016B
:10108000020408102040809016AAE47E019360BC00
:10109000A3FF543F30E509541FFEE493A360010E03
:1010A000CF54C025E060A840B8E493A3FAE493A32A
:1010B000F8E493A3C8C582C8CAC583CAF0A3C8C54B
:1010C00082C8CAC583CADFE9DEE780BE7810E2FEC7
:1010D00008E2FFE4FCFD7B64FAF9F8120402C006A2
:1010E000C0079000C6E0FEA3E0FFFBAA06E4F9F803
:1010F000D007D00612048D8E1B8F1C751A01E51ABD
:1011000025E02410F8E2FE08E2FFE4FCFD7B64FA2F
:10111000F9F8120402C006C007E51A25E024C6F556
:1011200082E43400F583E0FEA3E0FFFBAA06E4F9C5
:10113000F8D007D00612048D8E1D8F1ED3E51C95A6
:101140001EE51B951D4006851D1B851E1C051AE509
:101150001AB404AAE4F51AE51A25E02410F8E2FE10
:1011600008E2FFE4FCFD7B64FAF9F8120402C00611
:10117000C007E51A25E024C6F582E43400F583E0D3
:10118000FEA3E0FFFBAA06E4F9F8D007D00612049C
:101190008D8E1D8F1EC3E51E951CFFE51D951BF84A
:1011A000E51A25E02400C8F208EFF2E51A25E0244C
:1011B00020F8E51DF208E51EF2051AE51AB40497B9
:1011C0002212003E7D01E4FF1218137F011219A7BD
:1011D0007F011219C6121A46121B0612193D121768
:1011E000911218491218E6D2AF752F01E52F24FD90
:1011F000601C14602424FE60291460301460602494
:1012000007705F1216FC12159B752F04805412167E
:10121000FC12159B752F048049E53070FC752F0674
:101220008040120D728F2F121A318036D39000F742
:10123000E094009000F6E09400400CA3E024FFF05E
:101240009000F6E034FFF09000F3E004F0700690B8
:1012500000F2E004F0120C408F2F12165680037536
:101260002F04900102E06025E4788CF6FF121A4604
:10127000E4900102F0F52BF52C00052CE52C700212
:10128000052B64A0452B70F17F01121A46D2D812AB
:1012900015350211DC2212005E8F1AE51AC3940480
:1012A000500302132CE4F51BE51B25E02430F8E283
:1012B000FE08E2FFE48F1F8E1EF51DF51CAD1DAC70
:1012C0001C78071205438F1F8E1E8D1D8C1CE51B7D
:1012D00025E025E02460F8E2FC08E2FD08E2FE08D3
:1012E000E2FFE47B3FFAF9F8120402EF251FFFEE5C
:1012F000351EFEED351DFDEC351CFC780612053063
:10130000E51B25E025E02460F812057BE51B25E0C0
:1013100025E02460F8E2FC08E2FD08E2FE08E2FFB6
:101320007807120530E51B25E02450F8EEF208EFAF
:10133000F2051BE51B64046003021298AF1A120049
:101340000EEF7002FF227F0122C0E0C0F0C083C018
:1013500082C0D075D008C2CF30CB4920CC4678812E
:10136000A6CEE6FF54F0FEBE8031EF540F75F003B9
:10137000A42463F582E43419F583E493FB740193A8
:10138000FA7402938B288A29F52A052AE52A700225
:10139000052914F9120382F5CE80097881E6252704
:1013A000F8E6F5CE30CC2A7881E654F0FFBF801500
:1013B000AB28052AE52AAA297002052914F9120387
:1013C00082F5CE801A788106E62527F8E6F5CE80EC
:1013D0000E20CB0B7881E62482F8A6CE78810678A1
:1013E0008C7601D0D0D082D083D0F0D0E03278009B
:1013F000E2FE08E2FDAC068E24F525E4FFF9FEEEE0
:1014000025E02400F8E2FA08E2FBD39DEA9C4006BE
:10141000AF06AC02AD03EE25E02400F8E2FA08E2E4
:10142000FBC39525EA95245006A9068A248B250E30
:10143000BE04CC9000FCEFF0A3E9F0E4FCFDFE90CC
:1014400000FCE06E6017EE25E02400F8E2FA08E206
:10145000FBD39DEA9C4006AF06AC02AD030EBE0472
:10146000DE9000FEEFF022EFC3940450139000F0E2
:10147000E06F600CE49000F8F0A3F09000F0EFF063
:101480009000F0E0FFA3E06F604F7890E630E0213D
:10149000EFC39404503D900102E0703704F09000D7
:1014A000F0E024D6F582E43400F583E0788DF68010
:1014B000229000F0E0C394025019900102E07013F2
:1014C00004F09000F0E024D6F582E43400F583E0E7
:1014D000788DF69000F0E0A3F022C0E0C0F0C08369
:1014E000C082C0D075D000C000C004C005C006C016
:1014F00007C28D758CD8758AF0052EE52E70020511
:101500002DAE2DFF7C007D641203ADED4C7021905B
:1015100000F2E0FEA3E0FFD3940AEE94004006A39D
:10152000EEF0A3EFF09000F2E4F0A3F0F52DF52E2D
:10153000D007D006D005D004D000D0D0D082D08340
:10154000D0F0D0E0327882E6FF605FE4F6EF24E08E
:10155000601E24F0602024F0602A24F0603424F01F
:10156000603724F0603A24607040E4FF1219A7222B
:101570007F011219A722789376000876147890E6F6
:101580004410F6227893760008763C7890E654EF83
:10159000F6227890E64401F6227890E654FEF62290
:1015A0001218B27891A60608A607221219E4900034
:1015B000EE74FFF09000F0F0A3F0E49000EFF090F4
:1015C00000F8F0A3F07884F208F2A3F0A3F0900101
:1015D00001F0FFEF25E024C6F582E43400F583E056
:1015E000A3E0FE900101E02EF00FBF04E6900101A0
:1015F000E075F02884F0120AEB120EA01205BF7FEE
:101600000A12187E9000F6EEF0A3EFF0121A3122C3
:10161000C0E0C0F0C083C082C0D075D01053B9FD07
:1016200075260074C52526F8E675F003A42419F57F
:1016300082E4341AF583E493740193FA740293F903
:101640001205B9E52625E025E02451F812056F05BD
:1016500026E526C3940440CB753000D0D0D082D08C
:1016600083D0F0D0E032E4FBEB25E02420F8E2FE6A
:1016700008E2FFEB75F006A42495F8A60608A60775
:10168000EB25E02410F8E2FE08E2FFEB75F006A47B
:101690002497F8A60608A607EB25E025E02451F8D4
:1016A0001205567804120530EB75F006A42499F85B
:1016B000A60608A6070BBB04AF2208C5030604054F
:1016C0000207FFFF04CD00000000603D00C6003CA3
:1016D000003C002800280046004600460046010263
:1016E00003040506070800000000000000000000D9
:1016F000000000000000FF00FFFF000000000000ED
:10170000000000000000000000000000E4FFFE7484
:10171000C52EF8E69000039342070EBE04F1EF4297
:10172000D4EF42F4EF42E4EFF452DC75BA0C43BA62
:101730002043B92053B9BF8FB4E4F5B375B2277510
:10174000B11075BBFA75A95075AA3BF5AB75AC0322
:1017500075ADC075AEC022E49000F8F0A3F0900023
:10176000F074FFF0A3E0FFF460307890E630E0160C
:10177000EFC394045024900102E0701E04F0788DB1
:10178000E64408F68014EFC39402500E900102E084
:10179000700804F0788DE64408F69000F174FFF0CC
:1017A00022788D7608087603E408F608F674FF08B8
:1017B000F608F608760008763CE4FFEF75F006A41C
:1017C0002495F8E4F608F6EF75F006A42497F8E4FB
:1017D000F608F6EF75F006A42499F8E4F608F60F7B
:1017E000BF04D875278D22121917E4F51E74C5257C
:1017F0001EF8E675F003A42419F582E4341AF58383
:10180000E493740193FA740293F91205B9E51E2565
:10181000E025E02451F812056F051EE51EC394046F
:1018200040CB22E4FE7C0474C52CF8E690000393C0
:1018300042060CBC06F1EF6005EE42D48004EEF4E3
:1018400052D4EEF4FF52F4EE42E4ED6005EE42ECC9
:101850008003EF52ECEF52DC227E007FDEE4FDEDF0
:1018600025E02487F582E43419F583E493F4601DC0
:10187000ED25E02488F582E43419F583E493FCEF48
:101880002DF582E43EF583ECF00DBD10D222751AE1
:1018900000751BDE7B017A00BFFF057F017E002201
:1018A000E51B2FF582E4351AF583E07A00FB900002
:1018B000F4E0FCA3E0FDAF037E0012039BAA06AB9D
:1018C0000722E4FFFEFDFC751840F519E51915190E
:1018D000AA18700215184A60188F828E83E493F458
:1018E000FBE4F4FAEB2DFDEA3CFC0FBF00010E8097
:1018F000DBAE04AF052243F80875CDC043CC80535E
:10190000CCBF43CC2043CC1043CC0453CCFD43CBC1
:101910000243CB0153CBBF43E80853E5FC43E3024A
:1019200043F5034390032275BF0F00000000000041
:10193000000000000000000000000000D2D853B9F1
:10194000FD43B901E5B930E1FBE4F5BF224389016C
:10195000C28DD2A953B8FDE4F52DF52E9000F2F01A
:10196000A3F0A3F0A37464F0758CD8758AF0D28CC0
:10197000D2AF22FE0030FE0038FE0040FE0048FEDE
:101980000050FE00580000710000790100EE0100D7
:10199000F2FE0000FE0080000201010201030104CA
:1019A00001050A06050702080A09020A020B280CAB
:1019B0003C0D030E01FF01E4FE7D0474C52DF8E625
:1019C0009000039342060DBD06F1EF6004EE4280E5
:1019D00022EEF4528022EF600543D504800353D5F4
:1019E000FB53F5FB53E5FB43E304E4900102F09065
:1019F0000104F02253BAFEE5B920E004E5306005A9
:101A0000E5B930E1FBE4F5BF53B9FE53B9FD22ABB4
:101A100007AA06D3EB9DEA9C4007EB9DFFEA9CFEDC
:101A200022C3ED9BFFEC9AFE22FF1A6EFF1A81FF84
:101A30001A94FF1AA7FF1ABAFF1ACDFF1AE0FF1A6D
:101A4000F375BF0F43B92053B9FD43BA0175300197
:101A500043B901D2D822EF6009D29290010374FFFA
:101A6000F022C292E4900103F022ED6008EF9000B2
:101A70000393428022EF90000393F452802253B9E3
:101A8000EF78CEA6B708A6B608A6B578CD1205564B
:101A90002253B9EF78CEA6EB08A6EA08A6E978CDDE
:101AA0001205562253B9EF78CEA6F308A6F208A67F
:101AB000F178CD1205562253B9EF78CEA6FB08A6D1
:101AC000FA08A6F978CD1205562243B91078CEA6A9
:101AD000B708A6B608A6B578CD1205562243B910A8
:101AE00078CEA6EB08A6EA08A6E978CD120556221C
:101AF00043B91078CEA6F308A6F208A6F178CD1265
:101B000005562243B91078CEA6FB08A6FA08A6F916
:101B100078CD12055622C2DA53D80F43D8D0D2D886
:101B2000D2D922FFFFFFFFFFFFFFFFFFFFFFFFFFF5
:00000001FF
